{
  "contractName": "NodeRegistry",
  "abi": [
    {
      "inputs": [],
      "stateMutability": "nonpayable",
      "type": "constructor"
    },
    {
      "inputs": [],
      "name": "AddressNotRegistered",
      "type": "error"
    },
    {
      "inputs": [],
      "name": "AlreadyRevoked",
      "type": "error"
    },
    {
      "inputs": [],
      "name": "DuplicateNodeId",
      "type": "error"
    },
    {
      "inputs": [],
      "name": "DuplicatePolicy",
      "type": "error"
    },
    {
      "inputs": [],
      "name": "DuplicateSignature",
      "type": "error"
    },
    {
      "inputs": [],
      "name": "EmptyOpsAllowed",
      "type": "error"
    },
    {
      "inputs": [],
      "name": "EmptyOpsSubset",
      "type": "error"
    },
    {
      "inputs": [],
      "name": "GrantAlreadyActive",
      "type": "error"
    },
    {
      "inputs": [],
      "name": "InvalidExpiry",
      "type": "error"
    },
    {
      "inputs": [],
      "name": "InvalidRoles",
      "type": "error"
    },
    {
      "inputs": [],
      "name": "NodeNotRegistered",
      "type": "error"
    },
    {
      "inputs": [],
      "name": "NotGrantHolder",
      "type": "error"
    },
    {
      "inputs": [],
      "name": "NotPolicyAdmin",
      "type": "error"
    },
    {
      "inputs": [],
      "name": "NotResourceOwner",
      "type": "error"
    },
    {
      "inputs": [],
      "name": "OpsSubsetExceedsAllowed",
      "type": "error"
    },
    {
      "inputs": [],
      "name": "PolicyDeprecated",
      "type": "error"
    },
    {
      "inputs": [],
      "name": "PolicyNotFound",
      "type": "error"
    },
    {
      "inputs": [],
      "name": "PolicyRoleMismatch",
      "type": "error"
    },
    {
      "inputs": [],
      "name": "ZeroAddr",
      "type": "error"
    },
    {
      "anonymous": false,
      "inputs": [
        {
          "indexed": true,
          "internalType": "bytes32",
          "name": "parentGrantId",
          "type": "bytes32"
        },
        {
          "indexed": true,
          "internalType": "bytes32",
          "name": "grantId",
          "type": "bytes32"
        },
        {
          "indexed": false,
          "internalType": "uint8",
          "name": "depthRemaining",
          "type": "uint8"
        }
      ],
      "name": "GrantDelegated",
      "type": "event"
    },
    {
      "anonymous": false,
      "inputs": [
        {
          "indexed": true,
          "internalType": "bytes32",
          "name": "grantId",
          "type": "bytes32"
        },
        {
          "indexed": false,
          "internalType": "uint64",
          "name": "newExpiresAt",
          "type": "uint64"
        },
        {
          "indexed": false,
          "internalType": "uint8",
          "name": "newOpsSubset",
          "type": "uint8"
        }
      ],
      "name": "GrantExtended",
      "type": "event"
    },
    {
      "anonymous": false,
      "inputs": [
        {
          "indexed": true,
          "internalType": "bytes32",
          "name": "grantId",
          "type": "bytes32"
        }
      ],
      "name": "GrantIssued",
      "type": "event"
    },
    {
      "anonymous": false,
      "inputs": [
        {
          "indexed": true,
          "internalType": "bytes32",
          "name": "grantId",
          "type": "bytes32"
        }
      ],
      "name": "GrantRevoked",
      "type": "event"
    },
    {
      "anonymous": false,
      "inputs": [
        {
          "indexed": true,
          "internalType": "bytes32",
          "name": "actionKey",
          "type": "bytes32"
        },
        {
          "indexed": true,
          "internalType": "address",
          "name": "approver",
          "type": "address"
        },
        {
          "indexed": false,
          "internalType": "uint256",
          "name": "approvals",
          "type": "uint256"
        }
      ],
      "name": "MsigApproved",
      "type": "event"
    },
    {
      "anonymous": false,
      "inputs": [
        {
          "indexed": true,
          "internalType": "address",
          "name": "approver",
          "type": "address"
        }
      ],
      "name": "MsigApproverAdded",
      "type": "event"
    },
    {
      "anonymous": false,
      "inputs": [
        {
          "indexed": true,
          "internalType": "address",
          "name": "approver",
          "type": "address"
        }
      ],
      "name": "MsigApproverRemoved",
      "type": "event"
    },
    {
      "anonymous": false,
      "inputs": [
        {
          "indexed": true,
          "internalType": "bytes32",
          "name": "actionKey",
          "type": "bytes32"
        }
      ],
      "name": "MsigCleared",
      "type": "event"
    },
    {
      "anonymous": false,
      "inputs": [
        {
          "indexed": false,
          "internalType": "bool",
          "name": "required",
          "type": "bool"
        }
      ],
      "name": "MsigModeSet",
      "type": "event"
    },
    {
      "anonymous": false,
      "inputs": [
        {
          "indexed": false,
          "internalType": "uint8",
          "name": "threshold",
          "type": "uint8"
        }
      ],
      "name": "MsigThresholdSet",
      "type": "event"
    },
    {
      "anonymous": false,
      "inputs": [
        {
          "indexed": true,
          "internalType": "string",
          "name": "nodeId",
          "type": "string"
        },
        {
          "indexed": true,
          "internalType": "address",
          "name": "previousOwner",
          "type": "address"
        },
        {
          "indexed": true,
          "internalType": "address",
          "name": "newOwner",
          "type": "address"
        }
      ],
      "name": "NodeOwnershipTransferred",
      "type": "event"
    },
    {
      "anonymous": false,
      "inputs": [
        {
          "indexed": true,
          "internalType": "string",
          "name": "nodeId",
          "type": "string"
        },
        {
          "indexed": false,
          "internalType": "string",
          "name": "nodeName",
          "type": "string"
        },
        {
          "indexed": false,
          "internalType": "enum NodeRegistry.NodeType",
          "name": "nodeType",
          "type": "uint8"
        },
        {
          "indexed": false,
          "internalType": "string",
          "name": "publicKey",
          "type": "string"
        },
        {
          "indexed": false,
          "internalType": "address",
          "name": "registeredBy",
          "type": "address"
        },
        {
          "indexed": false,
          "internalType": "enum NodeRegistry.NodeType",
          "name": "registeredByNodeType",
          "type": "uint8"
        },
        {
          "indexed": false,
          "internalType": "string",
          "name": "nodeSignature",
          "type": "string"
        }
      ],
      "name": "NodeRegistered",
      "type": "event"
    },
    {
      "anonymous": false,
      "inputs": [
        {
          "indexed": true,
          "internalType": "uint256",
          "name": "policyId",
          "type": "uint256"
        },
        {
          "indexed": false,
          "internalType": "uint32",
          "name": "version",
          "type": "uint32"
        }
      ],
      "name": "PolicyChanged",
      "type": "event"
    },
    {
      "anonymous": false,
      "inputs": [
        {
          "indexed": true,
          "internalType": "uint256",
          "name": "policyId",
          "type": "uint256"
        },
        {
          "indexed": false,
          "internalType": "enum NodeRegistry.NodeType",
          "name": "fromRole",
          "type": "uint8"
        },
        {
          "indexed": false,
          "internalType": "enum NodeRegistry.NodeType",
          "name": "toRole",
          "type": "uint8"
        },
        {
          "indexed": false,
          "internalType": "uint8",
          "name": "opsAllowed",
          "type": "uint8"
        },
        {
          "indexed": false,
          "internalType": "bytes32",
          "name": "ctxSchema",
          "type": "bytes32"
        },
        {
          "indexed": false,
          "internalType": "uint32",
          "name": "version",
          "type": "uint32"
        },
        {
          "indexed": false,
          "internalType": "bytes32",
          "name": "policyHash",
          "type": "bytes32"
        }
      ],
      "name": "PolicyCreated",
      "type": "event"
    },
    {
      "anonymous": false,
      "inputs": [
        {
          "indexed": true,
          "internalType": "uint256",
          "name": "policyId",
          "type": "uint256"
        }
      ],
      "name": "PolicyDeprecatedEvent",
      "type": "event"
    },
    {
      "anonymous": false,
      "inputs": [
        {
          "indexed": true,
          "internalType": "uint256",
          "name": "policyId",
          "type": "uint256"
        },
        {
          "indexed": false,
          "internalType": "uint32",
          "name": "version",
          "type": "uint32"
        },
        {
          "indexed": false,
          "internalType": "uint8",
          "name": "opsAllowed",
          "type": "uint8"
        },
        {
          "indexed": false,
          "internalType": "bytes32",
          "name": "ctxSchema",
          "type": "bytes32"
        },
        {
          "indexed": false,
          "internalType": "bytes32",
          "name": "policyHash",
          "type": "bytes32"
        }
      ],
      "name": "PolicyUpdated",
      "type": "event"
    },
    {
      "anonymous": false,
      "inputs": [
        {
          "indexed": true,
          "internalType": "address",
          "name": "nodeAddress",
          "type": "address"
        },
        {
          "indexed": false,
          "internalType": "string",
          "name": "rpcURL",
          "type": "string"
        }
      ],
      "name": "RpcUrlMapped",
      "type": "event"
    },
    {
      "anonymous": false,
      "inputs": [
        {
          "indexed": true,
          "internalType": "address",
          "name": "proposedBy",
          "type": "address"
        },
        {
          "indexed": true,
          "internalType": "address",
          "name": "validator",
          "type": "address"
        }
      ],
      "name": "ValidatorProposed",
      "type": "event"
    },
    {
      "inputs": [
        {
          "internalType": "address",
          "name": "",
          "type": "address"
        }
      ],
      "name": "addressToNodeId",
      "outputs": [
        {
          "internalType": "string",
          "name": "",
          "type": "string"
        }
      ],
      "stateMutability": "view",
      "type": "function",
      "constant": true
    },
    {
      "inputs": [
        {
          "internalType": "bytes32",
          "name": "",
          "type": "bytes32"
        }
      ],
      "name": "grants",
      "outputs": [
        {
          "internalType": "uint64",
          "name": "issuedAt",
          "type": "uint64"
        },
        {
          "internalType": "uint64",
          "name": "expiresAt",
          "type": "uint64"
        },
        {
          "internalType": "uint32",
          "name": "policyId",
          "type": "uint32"
        },
        {
          "internalType": "uint8",
          "name": "opsSubset",
          "type": "uint8"
        },
        {
          "internalType": "bool",
          "name": "isIssued",
          "type": "bool"
        },
        {
          "internalType": "bool",
          "name": "isRevoked",
          "type": "bool"
        },
        {
          "internalType": "bool",
          "name": "delegationAllowed",
          "type": "bool"
        },
        {
          "internalType": "uint8",
          "name": "delegationDepth",
          "type": "uint8"
        },
        {
          "internalType": "bytes32",
          "name": "parentGrantId",
          "type": "bytes32"
        }
      ],
      "stateMutability": "view",
      "type": "function",
      "constant": true
    },
    {
      "inputs": [
        {
          "internalType": "string",
          "name": "",
          "type": "string"
        }
      ],
      "name": "iotNodes",
      "outputs": [
        {
          "internalType": "string",
          "name": "nodeName",
          "type": "string"
        },
        {
          "internalType": "enum NodeRegistry.NodeType",
          "name": "nodeType",
          "type": "uint8"
        },
        {
          "internalType": "string",
          "name": "publicKey",
          "type": "string"
        },
        {
          "internalType": "bool",
          "name": "isRegistered",
          "type": "bool"
        },
        {
          "internalType": "address",
          "name": "registeredBy",
          "type": "address"
        },
        {
          "internalType": "enum NodeRegistry.NodeType",
          "name": "registeredByNodeType",
          "type": "uint8"
        },
        {
          "internalType": "string",
          "name": "nodeSignature",
          "type": "string"
        }
      ],
      "stateMutability": "view",
      "type": "function",
      "constant": true
    },
    {
      "inputs": [
        {
          "internalType": "address",
          "name": "",
          "type": "address"
        }
      ],
      "name": "msigApprover",
      "outputs": [
        {
          "internalType": "bool",
          "name": "",
          "type": "bool"
        }
      ],
      "stateMutability": "view",
      "type": "function",
      "constant": true
    },
    {
      "inputs": [],
      "name": "msigApproverCount",
      "outputs": [
        {
          "internalType": "uint8",
          "name": "",
          "type": "uint8"
        }
      ],
      "stateMutability": "view",
      "type": "function",
      "constant": true
    },
    {
      "inputs": [],
      "name": "msigRequired",
      "outputs": [
        {
          "internalType": "bool",
          "name": "",
          "type": "bool"
        }
      ],
      "stateMutability": "view",
      "type": "function",
      "constant": true
    },
    {
      "inputs": [],
      "name": "msigThreshold",
      "outputs": [
        {
          "internalType": "uint8",
          "name": "",
          "type": "uint8"
        }
      ],
      "stateMutability": "view",
      "type": "function",
      "constant": true
    },
    {
      "inputs": [],
      "name": "nextPolicyId",
      "outputs": [
        {
          "internalType": "uint256",
          "name": "",
          "type": "uint256"
        }
      ],
      "stateMutability": "view",
      "type": "function",
      "constant": true
    },
    {
      "inputs": [
        {
          "internalType": "address",
          "name": "",
          "type": "address"
        }
      ],
      "name": "nodeRpcUrls",
      "outputs": [
        {
          "internalType": "string",
          "name": "",
          "type": "string"
        }
      ],
      "stateMutability": "view",
      "type": "function",
      "constant": true
    },
    {
      "inputs": [
        {
          "internalType": "string",
          "name": "",
          "type": "string"
        }
      ],
      "name": "nodeSignatureToNodeId",
      "outputs": [
        {
          "internalType": "string",
          "name": "",
          "type": "string"
        }
      ],
      "stateMutability": "view",
      "type": "function",
      "constant": true
    },
    {
      "inputs": [
        {
          "internalType": "uint256",
          "name": "",
          "type": "uint256"
        }
      ],
      "name": "policies",
      "outputs": [
        {
          "internalType": "enum NodeRegistry.NodeType",
          "name": "fromRole",
          "type": "uint8"
        },
        {
          "internalType": "enum NodeRegistry.NodeType",
          "name": "toRole",
          "type": "uint8"
        },
        {
          "internalType": "uint8",
          "name": "opsAllowed",
          "type": "uint8"
        },
        {
          "internalType": "bool",
          "name": "isDeprecated",
          "type": "bool"
        },
        {
          "internalType": "bytes32",
          "name": "ctxSchema",
          "type": "bytes32"
        },
        {
          "internalType": "bytes32",
          "name": "policyHash",
          "type": "bytes32"
        },
        {
          "internalType": "uint32",
          "name": "version",
          "type": "uint32"
        }
      ],
      "stateMutability": "view",
      "type": "function",
      "constant": true
    },
    {
      "inputs": [],
      "name": "policyAdmin",
      "outputs": [
        {
          "internalType": "address",
          "name": "",
          "type": "address"
        }
      ],
      "stateMutability": "view",
      "type": "function",
      "constant": true
    },
    {
      "inputs": [
        {
          "internalType": "bytes32",
          "name": "",
          "type": "bytes32"
        }
      ],
      "name": "policyIdByHash",
      "outputs": [
        {
          "internalType": "uint256",
          "name": "",
          "type": "uint256"
        }
      ],
      "stateMutability": "view",
      "type": "function",
      "constant": true
    },
    {
      "inputs": [
        {
          "internalType": "bytes",
          "name": "payload",
          "type": "bytes"
        }
      ],
      "name": "registerNodePacked",
      "outputs": [],
      "stateMutability": "nonpayable",
      "type": "function"
    },
    {
      "inputs": [
        {
          "internalType": "string",
          "name": "nodeId",
          "type": "string"
        },
        {
          "internalType": "address",
          "name": "newOwner",
          "type": "address"
        }
      ],
      "name": "transferNodeOwnership",
      "outputs": [],
      "stateMutability": "nonpayable",
      "type": "function"
    },
    {
      "inputs": [
        {
          "internalType": "string",
          "name": "nodeSignature",
          "type": "string"
        }
      ],
      "name": "isNodeRegistered",
      "outputs": [
        {
          "internalType": "bool",
          "name": "",
          "type": "bool"
        }
      ],
      "stateMutability": "view",
      "type": "function",
      "constant": true
    },
    {
      "inputs": [
        {
          "internalType": "address",
          "name": "validator",
          "type": "address"
        }
      ],
      "name": "proposeValidator",
      "outputs": [],
      "stateMutability": "nonpayable",
      "type": "function"
    },
    {
      "inputs": [
        {
          "internalType": "string",
          "name": "nodeSignature",
          "type": "string"
        }
      ],
      "name": "getNodeDetailsBySignature",
      "outputs": [
        {
          "internalType": "string",
          "name": "",
          "type": "string"
        },
        {
          "internalType": "string",
          "name": "",
          "type": "string"
        },
        {
          "internalType": "enum NodeRegistry.NodeType",
          "name": "",
          "type": "uint8"
        },
        {
          "internalType": "string",
          "name": "",
          "type": "string"
        },
        {
          "internalType": "bool",
          "name": "",
          "type": "bool"
        },
        {
          "internalType": "address",
          "name": "",
          "type": "address"
        },
        {
          "internalType": "string",
          "name": "",
          "type": "string"
        },
        {
          "internalType": "enum NodeRegistry.NodeType",
          "name": "",
          "type": "uint8"
        }
      ],
      "stateMutability": "view",
      "type": "function",
      "constant": true
    },
    {
      "inputs": [
        {
          "internalType": "address",
          "name": "nodeAddress",
          "type": "address"
        }
      ],
      "name": "getNodeDetailsByAddress",
      "outputs": [
        {
          "internalType": "string",
          "name": "",
          "type": "string"
        },
        {
          "internalType": "string",
          "name": "",
          "type": "string"
        },
        {
          "internalType": "enum NodeRegistry.NodeType",
          "name": "",
          "type": "uint8"
        },
        {
          "internalType": "string",
          "name": "",
          "type": "string"
        },
        {
          "internalType": "bool",
          "name": "",
          "type": "bool"
        },
        {
          "internalType": "address",
          "name": "",
          "type": "address"
        },
        {
          "internalType": "string",
          "name": "",
          "type": "string"
        },
        {
          "internalType": "enum NodeRegistry.NodeType",
          "name": "",
          "type": "uint8"
        }
      ],
      "stateMutability": "view",
      "type": "function",
      "constant": true
    },
    {
      "inputs": [
        {
          "internalType": "address",
          "name": "newAdmin",
          "type": "address"
        }
      ],
      "name": "setPolicyAdmin",
      "outputs": [],
      "stateMutability": "nonpayable",
      "type": "function"
    },
    {
      "inputs": [
        {
          "internalType": "bool",
          "name": "required",
          "type": "bool"
        }
      ],
      "name": "setMsigMode",
      "outputs": [],
      "stateMutability": "nonpayable",
      "type": "function"
    },
    {
      "inputs": [
        {
          "internalType": "address",
          "name": "a",
          "type": "address"
        }
      ],
      "name": "addMsigApprover",
      "outputs": [],
      "stateMutability": "nonpayable",
      "type": "function"
    },
    {
      "inputs": [
        {
          "internalType": "address",
          "name": "a",
          "type": "address"
        }
      ],
      "name": "removeMsigApprover",
      "outputs": [],
      "stateMutability": "nonpayable",
      "type": "function"
    },
    {
      "inputs": [
        {
          "internalType": "uint8",
          "name": "k",
          "type": "uint8"
        }
      ],
      "name": "setMsigThreshold",
      "outputs": [],
      "stateMutability": "nonpayable",
      "type": "function"
    },
    {
      "inputs": [
        {
          "internalType": "uint8",
          "name": "fromRole",
          "type": "uint8"
        },
        {
          "internalType": "uint8",
          "name": "toRole",
          "type": "uint8"
        },
        {
          "internalType": "uint8",
          "name": "ops",
          "type": "uint8"
        },
        {
          "internalType": "bytes32",
          "name": "schema",
          "type": "bytes32"
        }
      ],
      "name": "approveCreatePolicy",
      "outputs": [],
      "stateMutability": "nonpayable",
      "type": "function"
    },
    {
      "inputs": [
        {
          "internalType": "enum NodeRegistry.NodeType",
          "name": "fromRole",
          "type": "uint8"
        },
        {
          "internalType": "enum NodeRegistry.NodeType",
          "name": "toRole",
          "type": "uint8"
        },
        {
          "internalType": "uint8",
          "name": "opsAllowed",
          "type": "uint8"
        },
        {
          "internalType": "bytes32",
          "name": "ctxSchema",
          "type": "bytes32"
        }
      ],
      "name": "createPolicy",
      "outputs": [
        {
          "internalType": "uint256",
          "name": "policyId",
          "type": "uint256"
        }
      ],
      "stateMutability": "nonpayable",
      "type": "function"
    },
    {
      "inputs": [
        {
          "internalType": "uint256",
          "name": "policyId",
          "type": "uint256"
        },
        {
          "internalType": "uint8",
          "name": "opsAllowed",
          "type": "uint8"
        },
        {
          "internalType": "bytes32",
          "name": "ctxSchema",
          "type": "bytes32"
        }
      ],
      "name": "updatePolicy",
      "outputs": [],
      "stateMutability": "nonpayable",
      "type": "function"
    },
    {
      "inputs": [
        {
          "internalType": "uint256",
          "name": "policyId",
          "type": "uint256"
        }
      ],
      "name": "deprecatePolicy",
      "outputs": [],
      "stateMutability": "nonpayable",
      "type": "function"
    },
    {
      "inputs": [
        {
          "internalType": "uint256",
          "name": "policyId",
          "type": "uint256"
        }
      ],
      "name": "getPolicy",
      "outputs": [
        {
          "components": [
            {
              "internalType": "enum NodeRegistry.NodeType",
              "name": "fromRole",
              "type": "uint8"
            },
            {
              "internalType": "enum NodeRegistry.NodeType",
              "name": "toRole",
              "type": "uint8"
            },
            {
              "internalType": "uint8",
              "name": "opsAllowed",
              "type": "uint8"
            },
            {
              "internalType": "bool",
              "name": "isDeprecated",
              "type": "bool"
            },
            {
              "internalType": "bytes32",
              "name": "ctxSchema",
              "type": "bytes32"
            },
            {
              "internalType": "bytes32",
              "name": "policyHash",
              "type": "bytes32"
            },
            {
              "internalType": "uint32",
              "name": "version",
              "type": "uint32"
            }
          ],
          "internalType": "struct NodeRegistry.Policy",
          "name": "",
          "type": "tuple"
        }
      ],
      "stateMutability": "view",
      "type": "function",
      "constant": true
    },
    {
      "inputs": [
        {
          "internalType": "string",
          "name": "fromNodeSignature",
          "type": "string"
        },
        {
          "internalType": "string",
          "name": "toNodeSignature",
          "type": "string"
        },
        {
          "internalType": "uint256",
          "name": "policyId",
          "type": "uint256"
        },
        {
          "internalType": "uint8",
          "name": "opsSubset",
          "type": "uint8"
        },
        {
          "internalType": "uint64",
          "name": "expiresAt",
          "type": "uint64"
        }
      ],
      "name": "issueGrant",
      "outputs": [],
      "stateMutability": "nonpayable",
      "type": "function"
    },
    {
      "inputs": [
        {
          "internalType": "string",
          "name": "fromNodeSignature",
          "type": "string"
        },
        {
          "internalType": "string",
          "name": "toNodeSignature",
          "type": "string"
        },
        {
          "internalType": "uint256",
          "name": "policyId",
          "type": "uint256"
        },
        {
          "internalType": "uint8",
          "name": "opsSubset",
          "type": "uint8"
        },
        {
          "internalType": "uint64",
          "name": "expiresAt",
          "type": "uint64"
        },
        {
          "internalType": "bool",
          "name": "delegationAllowed",
          "type": "bool"
        },
        {
          "internalType": "uint8",
          "name": "delegationDepth",
          "type": "uint8"
        }
      ],
      "name": "issueGrantDelegable",
      "outputs": [],
      "stateMutability": "nonpayable",
      "type": "function"
    },
    {
      "inputs": [
        {
          "internalType": "string",
          "name": "currentFromNodeSignature",
          "type": "string"
        },
        {
          "internalType": "string",
          "name": "toNodeSignature",
          "type": "string"
        },
        {
          "internalType": "string",
          "name": "newFromNodeSignature",
          "type": "string"
        },
        {
          "internalType": "uint256",
          "name": "policyId",
          "type": "uint256"
        },
        {
          "internalType": "uint8",
          "name": "opsSubset",
          "type": "uint8"
        },
        {
          "internalType": "uint64",
          "name": "expiresAt",
          "type": "uint64"
        }
      ],
      "name": "delegateGrant",
      "outputs": [],
      "stateMutability": "nonpayable",
      "type": "function"
    },
    {
      "inputs": [
        {
          "internalType": "string",
          "name": "fromNodeSignature",
          "type": "string"
        },
        {
          "internalType": "string",
          "name": "toNodeSignature",
          "type": "string"
        },
        {
          "internalType": "uint256",
          "name": "policyId",
          "type": "uint256"
        }
      ],
      "name": "revokeGrant",
      "outputs": [],
      "stateMutability": "nonpayable",
      "type": "function"
    },
    {
      "inputs": [
        {
          "internalType": "string",
          "name": "fromNodeSignature",
          "type": "string"
        },
        {
          "internalType": "string",
          "name": "toNodeSignature",
          "type": "string"
        },
        {
          "internalType": "uint256",
          "name": "policyId",
          "type": "uint256"
        }
      ],
      "name": "getGrant",
      "outputs": [
        {
          "internalType": "uint256",
          "name": "policyIdOut",
          "type": "uint256"
        },
        {
          "internalType": "uint8",
          "name": "opsSubset",
          "type": "uint8"
        },
        {
          "internalType": "uint64",
          "name": "issuedAt",
          "type": "uint64"
        },
        {
          "internalType": "uint64",
          "name": "expiresAt",
          "type": "uint64"
        },
        {
          "internalType": "bool",
          "name": "isIssued",
          "type": "bool"
        },
        {
          "internalType": "bool",
          "name": "isRevoked",
          "type": "bool"
        }
      ],
      "stateMutability": "view",
      "type": "function",
      "constant": true
    },
    {
      "inputs": [
        {
          "internalType": "string",
          "name": "fromNodeSignature",
          "type": "string"
        },
        {
          "internalType": "string",
          "name": "toNodeSignature",
          "type": "string"
        },
        {
          "internalType": "uint256",
          "name": "policyId",
          "type": "uint256"
        }
      ],
      "name": "getGrantEx",
      "outputs": [
        {
          "internalType": "uint256",
          "name": "policyIdOut",
          "type": "uint256"
        },
        {
          "internalType": "uint8",
          "name": "opsSubset",
          "type": "uint8"
        },
        {
          "internalType": "uint64",
          "name": "issuedAt",
          "type": "uint64"
        },
        {
          "internalType": "uint64",
          "name": "expiresAt",
          "type": "uint64"
        },
        {
          "internalType": "bool",
          "name": "isIssued",
          "type": "bool"
        },
        {
          "internalType": "bool",
          "name": "isRevoked",
          "type": "bool"
        },
        {
          "internalType": "bool",
          "name": "delegationAllowed",
          "type": "bool"
        },
        {
          "internalType": "uint8",
          "name": "delegationDepth",
          "type": "uint8"
        }
      ],
      "stateMutability": "view",
      "type": "function",
      "constant": true
    },
    {
      "inputs": [
        {
          "internalType": "string",
          "name": "fromNodeSignature",
          "type": "string"
        },
        {
          "internalType": "string",
          "name": "toNodeSignature",
          "type": "string"
        },
        {
          "internalType": "uint256",
          "name": "policyId",
          "type": "uint256"
        },
        {
          "internalType": "uint8",
          "name": "opBit",
          "type": "uint8"
        }
      ],
      "name": "checkGrant",
      "outputs": [
        {
          "internalType": "bool",
          "name": "",
          "type": "bool"
        }
      ],
      "stateMutability": "view",
      "type": "function",
      "constant": true
    },
    {
      "inputs": [
        {
          "internalType": "string",
          "name": "fromNodeSignature",
          "type": "string"
        },
        {
          "internalType": "string",
          "name": "toNodeSignature",
          "type": "string"
        },
        {
          "internalType": "uint256",
          "name": "policyId",
          "type": "uint256"
        }
      ],
      "name": "isGrantExpired",
      "outputs": [
        {
          "internalType": "bool",
          "name": "",
          "type": "bool"
        }
      ],
      "stateMutability": "view",
      "type": "function",
      "constant": true
    },
    {
      "inputs": [
        {
          "internalType": "string",
          "name": "nodeSignature",
          "type": "string"
        }
      ],
      "name": "isValidator",
      "outputs": [
        {
          "internalType": "bool",
          "name": "",
          "type": "bool"
        }
      ],
      "stateMutability": "view",
      "type": "function",
      "constant": true
    }
  ],
  "bytecode": "0x608060405234801561001057600080fd5b50600680546001600160a01b03191633179055614ca4806100326000396000f3fe608060405234801561001057600080fd5b50600436106101d25760003560e01c80638cf0c7ff116101005780638cf0c7ff146103ac5780638d062141146103bf578063979b371f146103df578063a4b341cd146103f2578063ab7d30fd14610405578063b45b4fb514610418578063bdb08bc91461042b578063c19745c41461043e578063c1e0ff9914610491578063cad0b8db146104f2578063cb2ec257146104fb578063cdf3495714610522578063d3e8948314610535578063dc16980e146105a2578063de1f8980146105b5578063e5e1eeea14610695578063ef36d16a146106a8578063f934df91146106bb578063f991dde4146106ce57600080fd5b806301147ea8146101d75780630ef0df38146101ec578063141c8ee1146102145780632393a25414610227578063256e2c681461023a57806325d80f951461024d5780632684733a1461026057806327e2ac2e1461026d5780632b07fce3146102905780632fa935f6146102b057806333345200146102c3578063345097df146102d6578063430ae633146102e957806343316264146102fc5780634c2e92271461032057806358e51896146103335780635c1466ba1461035e5780635ed2660d1461036b5780638a26f94214610399575b600080fd5b6101ea6101e5366004614495565b6106f4565b005b6101ff6101fa36600461437b565b610710565b60405190151581526020015b60405180910390f35b6101ea610222366004614149565b610906565b6101ea6102353660046140f4565b610a8c565b6101ea6102483660046146e7565b610b94565b6101ff61025b3660046141d2565b610ca5565b6009546101ff9060ff1681565b6101ff61027b3660046140f4565b600a6020526000908152604090205460ff1681565b6102a361029e366004614131565b610e16565b60405161020b9190614b0c565b6101ea6102be3660046143ff565b610f54565b6101ea6102d1366004614699565b610f6f565b6101ea6102e4366004614131565b6111be565b6101ff6102f73660046141d2565b6112ee565b600b5461030e90610100900460ff1681565b60405160ff909116815260200161020b565b6101ea61032e3660046146cd565b6114d8565b600654610346906001600160a01b031681565b6040516001600160a01b03909116815260200161020b565b600b5461030e9060ff1681565b61038b610379366004614131565b60086020526000908152604090205481565b60405190815260200161020b565b61038b6103a7366004614188565b61158a565b6101ea6103ba3660046140f4565b611855565b6103d26103cd3660046140f4565b61199b565b60405161020b91906148ef565b6101ea6103ed36600461424d565b611a35565b6101ea6104003660046140f4565b611f5e565b6101ea6104133660046140f4565b611fbe565b6101ea610426366004614117565b612032565b6101ff61043936600461430b565b61209e565b61045161044c36600461430b565b612192565b6040805196875260ff90951660208701526001600160401b03938416948601949094529116606084015215156080830152151560a082015260c00161020b565b6104a461049f36600461430b565b612286565b6040805198895260ff97881660208a01526001600160401b03968716908901529490931660608701529015156080860152151560a0850152151560c08401521660e08201526101000161020b565b61038b60055481565b61050e6105093660046140f4565b612399565b60405161020b98979695949392919061497a565b6101ea61053036600461430b565b612746565b61058f610543366004614131565b600460205260009081526040902080546001820154600283015460039093015460ff80841694610100850482169462010000810483169463010000009091049092169263ffffffff1687565b60405161020b979695949392919061485b565b6101ea6105b03660046141f9565b61287b565b6106356105c3366004614131565b600760205260009081526040902080546001909101546001600160401b0380831692600160401b81049091169163ffffffff600160801b8304169160ff600160a01b8204811692600160a81b8304821692600160b01b8104831692600160b81b8204811692600160c01b909204169089565b604080516001600160401b039a8b1681529990981660208a015263ffffffff9096169688019690965260ff93841660608801529115156080870152151560a0860152151560c085015290911660e08301526101008201526101200161020b565b6103d26106a336600461453c565b612b1e565b6103d26106b63660046140f4565b612b42565b61050e6106c93660046141d2565b612b5b565b6106e16106dc36600461453c565b612f9f565b60405161020b9796959493929190614902565b610705898989898989898989613199565b505050505050505050565b60008061078888888080601f01602080910402602001604051908101604052809392919081815260200183838082843760009201919091525050604080516020601f8c018190048102820181019092528a815292508a9150899081908401838280828437600092019190915250899250613831915050565b6000818152600760205260409020805491925090600160a81b900460ff1615806107ba57508054600160b01b900460ff165b156107ca576000925050506108fc565b80546001600160401b03600160401b90910481164290911611156107f3576000925050506108fc565b60018101541561086d57600181015460009081526007602052604090208054600160a81b900460ff16158061083057508054600160b01b900460ff165b1561084157600093505050506108fc565b80546001600160401b03600160401b909104811642909116111561086b57600093505050506108fc565b505b805463ffffffff600160801b90910481166000908152600460205260409020600381015490911615806108a8575080546301000000900460ff165b156108b957600093505050506108fc565b8154600160a01b9004851660ff166108d757600093505050506108fc565b8054620100009004851660ff166108f457600093505050506108fc565b600193505050505b9695505050505050565b60008080808080808061091b898b018b614576565b9750975097509750975097509750975060006001600160a01b0316846001600160a01b0316141561095f5760405163ae9954c360e01b815260040160405180910390fd5b60008860405161096f91906147d0565b908152604051908190036020019020805461098990614be5565b15801591506109ba57506000886040516109a391906147d0565b9081526040519081900360200190206003015460ff165b156109d857604051630e08ef4960e31b815260040160405180910390fd5b6001816040516109e891906147d0565b90815260200160405180910390208054610a0190614be5565b159050610a2157604051639cb2fd1b60e01b815260040160405180910390fd5b87600182604051610a3291906147d0565b90815260200160405180910390209080519060200190610a53929190613ecb565b50600080610a618885613867565b91509150610a708a8a84613913565b610a7e8a888884878a6139a4565b505050505050505050505050565b6006546001600160a01b03163314610ab757604051634e76d0e360e11b815260040160405180910390fd5b6001600160a01b0381161580610ae557506001600160a01b0381166000908152600a602052604090205460ff165b15610b0357604051634e76d0e360e11b815260040160405180910390fd5b6001600160a01b0381166000908152600a60205260409020805460ff199081166001908117909255600b805460ff818116909401841692169190911790819055610100900416610b5d57600b805461ff0019166101001790555b6040516001600160a01b038216907f12fc58a2c8368ba812af426967b15afa887ec17a7dbe45fd2ce0075c50e2613590600090a250565b336000908152600a602052604090205460ff16610bc457604051634e76d0e360e11b815260040160405180910390fd5b6000610bd285858585613c16565b6000818152600d6020908152604080832033845290915290205490915060ff1615610c1057604051631bb233c160e01b815260040160405180910390fd5b6000818152600d602090815260408083203384528252808320805460ff19166001908117909155848452600c909252822054610c4b91614b91565b6000838152600c60205260409081902082905551909150339083907fa7be4a8e8c912b7cab47dcb1db333437222664e4f4c9854c427e798b44d53b5390610c959085815260200190565b60405180910390a3505050505050565b60008060018484604051610cba9291906147c0565b90815260200160405180910390208054610cd390614be5565b80601f0160208091040260200160405190810160405280929190818152602001828054610cff90614be5565b8015610d4c5780601f10610d2157610100808354040283529160200191610d4c565b820191906000526020600020905b815481529060010190602001808311610d2f57829003601f168201915b50505050509050805160001415610d67576000915050610e10565b600081604051610d7791906147d0565b9081526040519081900360200190206003015460ff16610d9b576000915050610e10565b8383604051602001610dae9291906147c0565b60405160208183030381529060405280519060200120600082604051610dd491906147d0565b9081526020016040518091039020600401604051602001610df591906147ec565b60405160208183030381529060405280519060200120149150505b92915050565b610e576040805160e0810190915280600081526020016000815260006020820181905260408201819052606082018190526080820181905260a09091015290565b60008281526004602052604090819020815160e081019092528054829060ff166005811115610e9657634e487b7160e01b600052602160045260246000fd5b6005811115610eb557634e487b7160e01b600052602160045260246000fd5b81528154602090910190610100900460ff166005811115610ee657634e487b7160e01b600052602160045260246000fd5b6005811115610f0557634e487b7160e01b600052602160045260246000fd5b8152815460ff6201000082048116602084015263010000009091041615156040820152600182015460608201526002820154608082015260039091015463ffffffff1660a09091015292915050565b610f6687878787878787600080613199565b50505050505050565b6006546001600160a01b03163314610f9a57604051634e76d0e360e11b815260040160405180910390fd5b60008381526004602052604090206003015463ffffffff16610fcf5760405163720caa4f60e01b815260040160405180910390fd5b6000838152600460205260409020546301000000900460ff161561100657604051636162391360e11b815260040160405180910390fd5b60ff82166110275760405163573d5c7160e11b815260040160405180910390fd5b60008381526004602052604081205461104d9060ff808216916101009004168585613c90565b600081815260086020526040902054909150801580159061106e5750848114155b801561109057506000818152600460205260409020546301000000900460ff16155b156110ae57604051630af0676160e31b815260040160405180910390fd5b6000858152600460208181526040808420600281018054865260088452828620869055815462ff000019166201000060ff8c8116820292909217845560018085018c815560038601805463ffffffff19811663ffffffff9182169094018116939093178155948c90558b8a52868a208f9055988e905296865291549254965484519390961683529504909416918401919091528201526060810183905285907f3d130817a1c9a7aa3522bd8c583bb7923c4cf8dcc160e836d08872c133ffa9709060800160405180910390a260008581526004602090815260409182902060030154915163ffffffff90921682528691600080516020614c4f833981519152910160405180910390a25050505050565b6006546001600160a01b031633146111e957604051634e76d0e360e11b815260040160405180910390fd5b60008181526004602052604090206003015463ffffffff1661121e5760405163720caa4f60e01b815260040160405180910390fd5b6000818152600460205260409020546301000000900460ff161561125557604051636162391360e11b815260040160405180910390fd5b6000818152600460209081526040808320805463ff0000001916630100000017815560020154835260089091528082208290555182917f5f5a8c2575d594b9f5eb709173b01d2b15e51523a7fbda857a8d9cd8264418d791a260008181526004602090815260409182902060030154915163ffffffff90921682528291600080516020614c4f833981519152910160405180910390a250565b600080600184846040516113039291906147c0565b9081526020016040518091039020805461131c90614be5565b80601f016020809104026020016040519081016040528092919081815260200182805461134890614be5565b80156113955780601f1061136a57610100808354040283529160200191611395565b820191906000526020600020905b81548152906001019060200180831161137857829003601f168201915b505050505090506000816040516113ac91906147d0565b9081526040519081900360200190206003015460ff16158061143c575083836040516020016113dc9291906147c0565b6040516020818303038152906040528051906020012060008260405161140291906147d0565b908152602001604051809103902060040160405160200161142391906147ec565b6040516020818303038152906040528051906020012014155b15611459576040516229eaad60e31b815260040160405180910390fd5b6000808260405161146a91906147d0565b90815260405190819003602001902060019081015460ff1691508160058111156114a457634e487b7160e01b600052602160045260246000fd5b14806114cf575060028160058111156114cd57634e487b7160e01b600052602160045260246000fd5b145b95945050505050565b6006546001600160a01b0316331461150357604051634e76d0e360e11b815260040160405180910390fd5b60ff8116158061151b5750600b5460ff908116908216115b1561153957604051633a767e1d60e21b815260040160405180910390fd5b600b805461ff00191661010060ff8416908102919091179091556040519081527fef159855b08e6479afa5a3e255c7ecdc33fda511f356408729f6f2f27d72bc72906020015b60405180910390a150565b6006546000906001600160a01b031633146115b857604051634e76d0e360e11b815260040160405180910390fd5b61160a6116058660058111156115de57634e487b7160e01b600052602160045260246000fd5b8660058111156115fe57634e487b7160e01b600052602160045260246000fd5b8686613c16565b613ca9565b600085600581111561162c57634e487b7160e01b600052602160045260246000fd5b14806116575750600084600581111561165557634e487b7160e01b600052602160045260246000fd5b145b1561167557604051633a767e1d60e21b815260040160405180910390fd5b60ff83166116965760405163573d5c7160e11b815260040160405180910390fd5b60006116a486868686613c90565b60008181526008602052604090205490915080158015906116db57506000818152600460205260409020546301000000900460ff16155b156116f957604051630af0676160e31b815260040160405180910390fd5b600580546001908101808355600081815260046020526040902080549196508a93909260ff199092169190849081111561174357634e487b7160e01b600052602160045260246000fd5b02179055506000838152600460205260409020805487919061ff00191661010083600581111561178357634e487b7160e01b600052602160045260246000fd5b02179055506000838152600460209081526040808320805463ffff000019166201000060ff8b160263ff00000019161781556001808201899055600282018790556003909101805463ffffffff191682179055858452600890925291829020859055905184917fe52797edff0e0cffaad297912ec8d3a310717b23f6078dfcee65120828a3ba2c9161181f918b918b918b918b91908a906148a8565b60405180910390a2604051600181528390600080516020614c4f8339815191529060200160405180910390a25050949350505050565b6006546001600160a01b0316331461188057604051634e76d0e360e11b815260040160405180910390fd5b6001600160a01b0381166000908152600a602052604090205460ff166118b957604051634e76d0e360e11b815260040160405180910390fd5b6001600160a01b0381166000908152600a60205260409020805460ff19908116909155600b805460001960ff82811691909101169216821790551580159061190d5750600b5460ff80821661010090920416115b1561196457600b805461ff0019811661010060ff9283168102919091179283905560405192041681527fef159855b08e6479afa5a3e255c7ecdc33fda511f356408729f6f2f27d72bc729060200160405180910390a15b6040516001600160a01b038216907ffb06bddf5fd66444eb6e8e21cadc3738f442adf338977599123ec64ea5ac9d5890600090a250565b600360205260009081526040902080546119b490614be5565b80601f01602080910402602001604051908101604052809291908181526020018280546119e090614be5565b8015611a2d5780601f10611a0257610100808354040283529160200191611a2d565b820191906000526020600020905b815481529060010190602001808311611a1057829003601f168201915b505050505081565b6000611aac8a8a8080601f01602080910402602001604051908101604052809392919081815260200183838082843760009201919091525050604080516020601f8e018190048102820181019092528c815292508c91508b9081908401838280828437600092019190915250899250613831915050565b6000818152600760205260409020805491925090600160a81b900460ff161580611ade57508054600160b01b900460ff165b15611afc576040516304883f9160e21b815260040160405180910390fd5b80546001600160401b03600160401b9091048116429091161115611b325760405162d36c8560e81b815260040160405180910390fd5b8054600160b81b900460ff161580611b5357508054600160c01b900460ff16155b15611b71576040516304883f9160e21b815260040160405180910390fd5b805463ffffffff600160801b909104811660009081526004602052604090206003810154909116611bb55760405163720caa4f60e01b815260040160405180910390fd5b80546301000000900460ff1615611bdf57604051636162391360e11b815260040160405180910390fd5b60ff8516611c00576040516396b346b560e01b815260040160405180910390fd5b805460ff6201000090910481161986161615611c2f576040516313bed4b560e31b815260040160405180910390fd5b815460ff600160a01b90910481161986161615611c5f576040516313bed4b560e31b815260040160405180910390fd5b426001600160401b0316846001600160401b0316111580611c94575081546001600160401b03600160401b9091048116908516115b15611cb15760405162d36c8560e81b815260040160405180910390fd5b6000611d3989898080601f016020809104026020016040519081016040528093929190818152602001838380828437600081840152601f19601f820116905080830192505050505050508c8c8080601f0160208091040260200160405190810160405280939291908181526020018383808284376000920191909152508c9250613831915050565b6000818152600760205260409020805491925090600160a81b900460ff168015611d6c57508054600160b01b900460ff16155b8015611d8e575080546001600160401b03600160401b90910481164290911611155b15611e4957805460ff60a01b1916600160a01b60ff89160217808255600160401b90046001600160401b039081169087161115611de8578054600160401b600160801b031916600160401b6001600160401b038816021781555b805460405183917f4ab936021ac0cc97c70f08db756e7c187f3bb7722a564cdeb72835a4ed1e6ac991611e3791600160401b81046001600160401b031691600160a01b90910460ff1690614b75565b60405180910390a25050505050610705565b83548154600160a81b426001600160401b0390811664ffffffffff60801b19909316600160801b9485900463ffffffff1690940260ff60a01b191693909317600160a01b60ff8c811691909102919091176001600160801b03191692909217600160401b938a16939093029290921761ffff60a81b19811683178455865462ffffff60a81b19909116600160b81b918290048316151590910217909117808355855460ff60c01b19909116600160c01b918290048316600019018316820217808455600184018890556040519190049091168152829086907f56b224988a030375ea9a2f1309e70568c5ab3ddae733173ad62ef2db664bfa909060200160405180910390a35050505050505050505050505050565b6001600160a01b038116611f855760405163ae9954c360e01b815260040160405180910390fd5b6040516001600160a01b0382169033907f1e88818bc653698bb4bd01c0797cdf0c683be29f1171a3d3c345af8b18d10cfe90600090a350565b6006546001600160a01b03163314611fe957604051634e76d0e360e11b815260040160405180910390fd5b6001600160a01b0381166120105760405163ae9954c360e01b815260040160405180910390fd5b600680546001600160a01b0319166001600160a01b0392909216919091179055565b6006546001600160a01b0316331461205d57604051634e76d0e360e11b815260040160405180910390fd5b6009805460ff19168215159081179091556040519081527f5955528cf4b88a032960f922f6c9729947d1db070252bd0494e9545db39d8e549060200161157f565b60008061211687878080601f01602080910402602001604051908101604052809392919081815260200183838082843760009201919091525050604080516020601f8b018190048102820181019092528981529250899150889081908401838280828437600092019190915250889250613831915050565b600081815260076020526040902054909150600160a81b900460ff1615806121535750600081815260076020526040902054600160b01b900460ff165b156121625760019150506114cf565b600090815260076020526040902054600160401b90046001600160401b0390811642909116119695505050505050565b60008060008060008060006122238c8c8080601f016020809104026020016040519081016040528093929190818152602001838380828437600081840152601f19601f820116905080830192505050505050508b8b8080601f0160208091040260200160405190810160405280939291908181526020018383808284376000920191909152508d9250613831915050565b60009081526007602052604090205463ffffffff600160801b8204169d60ff600160a01b830481169e506001600160401b038084169e50600160401b8404169c50600160a81b830481169b50600160b01b90920490911698509650505050505050565b600080600080600080600080600061231a8e8e8080601f016020809104026020016040519081016040528093929190818152602001838380828437600081840152601f19601f820116905080830192505050505050508d8d8080601f0160208091040260200160405190810160405280939291908181526020018383808284376000920191909152508f9250613831915050565b60009081526007602052604090205463ffffffff600160801b820416995060ff600160a01b8204811699506001600160401b038083169950600160401b8304169750600160a81b820481169650600160b01b820481169550600160b81b820481169450600160c01b90910416915050959b50959b939950955095509550565b606080600060606000806060600080600260008b6001600160a01b03166001600160a01b0316815260200190815260200160002080546123d890614be5565b80601f016020809104026020016040519081016040528092919081815260200182805461240490614be5565b80156124515780601f1061242657610100808354040283529160200191612451565b820191906000526020600020905b81548152906001019060200180831161243457829003601f168201915b5050505050905080516000141561247b576040516343876cef60e11b815260040160405180910390fd5b8060008260405161248c91906147d0565b908152604051908190036020018120906000906124aa9085906147d0565b9081526040519081900360200181206001015460ff16906000906124cf9086906147d0565b90815260200160405180910390206002016000856040516124f091906147d0565b9081526040519081900360200181206003015460ff16906000906125159088906147d0565b908152604051908190036020018120600301546001600160a01b0361010090910416906000906125469089906147d0565b908152602001604051809103902060040160008860405161256791906147d0565b908152602001604051809103902060030160159054906101000a900460ff1686805461259290614be5565b80601f01602080910402602001604051908101604052809291908181526020018280546125be90614be5565b801561260b5780601f106125e05761010080835404028352916020019161260b565b820191906000526020600020905b8154815290600101906020018083116125ee57829003601f168201915b5050505050965084805461261e90614be5565b80601f016020809104026020016040519081016040528092919081815260200182805461264a90614be5565b80156126975780601f1061266c57610100808354040283529160200191612697565b820191906000526020600020905b81548152906001019060200180831161267a57829003601f168201915b505050505094508180546126aa90614be5565b80601f01602080910402602001604051908101604052809291908181526020018280546126d690614be5565b80156127235780601f106126f857610100808354040283529160200191612723565b820191906000526020600020905b81548152906001019060200180831161270657829003601f168201915b505050505091509850985098509850985098509850985050919395975091939597565b60006127bd86868080601f01602080910402602001604051908101604052809392919081815260200183838082843760009201919091525050604080516020601f8a018190048102820181019092528881529250889150879081908401838280828437600092019190915250879250613831915050565b600081815260076020526040902054909150600160a81b900460ff166127f65760405163720caa4f60e01b815260040160405180910390fd5b600081815260076020526040902054600160b01b900460ff161561282d5760405163905e710760e01b815260040160405180910390fd5b600081815260076020526040808220805460ff60b01b1916600160b01b1790555182917fbc7909d45ab794ee63122077124d9ce05bea1db0768be90c77d2eddbdf1eef4f91a2505050505050565b6001600160a01b0381166128a25760405163ae9954c360e01b815260040160405180910390fd5b600083836040516128b49291906147c0565b9081526040519081900360200190206003015460ff166128e6576040516229eaad60e31b815260040160405180910390fd5b60008084846040516128f99291906147c0565b908152604051908190036020018120600301546001600160a01b03610100909104169150829060009061292f90879087906147c0565b90815260408051602092819003830181206003018054610100600160a81b0319166101006001600160a01b039687160217905582810180835260008083529486168552600290935292209151612986929190613ecb565b506001600160a01b03821660009081526002602052604090206129aa908585613f4f565b506001600160a01b038116600090815260036020526040812080546129ce90614be5565b80601f01602080910402602001604051908101604052809291908181526020018280546129fa90614be5565b8015612a475780601f10612a1c57610100808354040283529160200191612a47565b820191906000526020600020905b815481529060010190602001808311612a2a57829003601f168201915b505050505090508051600014612ac3576001600160a01b03831660009081526003602090815260409091208251612a8092840190613ecb565b50826001600160a01b03167f4506e6c4aa323a2c7f01c52376e3badd33f3cdad4d027db71b363133e44bf3fe82604051612aba91906148ef565b60405180910390a25b826001600160a01b0316826001600160a01b03168686604051612ae79291906147c0565b604051908190038120907ff1c80b28d2d3b1883b5c4e9c640b1e4807e75bf0323f3e41328722e489dfefd390600090a45050505050565b8051602081830181018051600182529282019190930120915280546119b490614be5565b600260205260009081526040902080546119b490614be5565b60608060006060600080606060008060018b8b604051612b7c9291906147c0565b90815260200160405180910390208054612b9590614be5565b80601f0160208091040260200160405190810160405280929190818152602001828054612bc190614be5565b8015612c0e5780601f10612be357610100808354040283529160200191612c0e565b820191906000526020600020905b815481529060010190602001808311612bf157829003601f168201915b50505050509050600081604051612c2591906147d0565b9081526040519081900360200190206003015460ff161580612cb557508a8a604051602001612c559291906147c0565b60405160208183030381529060405280519060200120600082604051612c7b91906147d0565b9081526020016040518091039020600401604051602001612c9c91906147ec565b6040516020818303038152906040528051906020012014155b15612cd2576040516229eaad60e31b815260040160405180910390fd5b80600082604051612ce391906147d0565b90815260405190819003602001812090600090612d019085906147d0565b9081526040519081900360200181206001015460ff1690600090612d269086906147d0565b9081526020016040518091039020600201600085604051612d4791906147d0565b9081526040519081900360200181206003015460ff1690600090612d6c9088906147d0565b908152604051908190036020018120600301546001600160a01b036101009091041690600090612d9d9089906147d0565b9081526020016040518091039020600401600088604051612dbe91906147d0565b908152602001604051809103902060030160159054906101000a900460ff16868054612de990614be5565b80601f0160208091040260200160405190810160405280929190818152602001828054612e1590614be5565b8015612e625780601f10612e3757610100808354040283529160200191612e62565b820191906000526020600020905b815481529060010190602001808311612e4557829003601f168201915b50505050509650848054612e7590614be5565b80601f0160208091040260200160405190810160405280929190818152602001828054612ea190614be5565b8015612eee5780601f10612ec357610100808354040283529160200191612eee565b820191906000526020600020905b815481529060010190602001808311612ed157829003601f168201915b50505050509450818054612f0190614be5565b80601f0160208091040260200160405190810160405280929190818152602001828054612f2d90614be5565b8015612f7a5780601f10612f4f57610100808354040283529160200191612f7a565b820191906000526020600020905b815481529060010190602001808311612f5d57829003601f168201915b5050505050915098509850985098509850985098509850509295985092959890939650565b8051602081830181018051600082529282019190930120915280548190612fc590614be5565b80601f0160208091040260200160405190810160405280929190818152602001828054612ff190614be5565b801561303e5780601f106130135761010080835404028352916020019161303e565b820191906000526020600020905b81548152906001019060200180831161302157829003601f168201915b5050506001840154600285018054949560ff90921694919350915061306290614be5565b80601f016020809104026020016040519081016040528092919081815260200182805461308e90614be5565b80156130db5780601f106130b0576101008083540402835291602001916130db565b820191906000526020600020905b8154815290600101906020018083116130be57829003601f168201915b5050506003840154600485018054949560ff808416966001600160a01b036101008604169650600160a81b9094041693509161311690614be5565b80601f016020809104026020016040519081016040528092919081815260200182805461314290614be5565b801561318f5780601f106131645761010080835404028352916020019161318f565b820191906000526020600020905b81548152906001019060200180831161317257829003601f168201915b5050505050905087565b600060018a8a6040516131ad9291906147c0565b908152602001604051809103902080546131c690614be5565b80601f01602080910402602001604051908101604052809291908181526020018280546131f290614be5565b801561323f5780601f106132145761010080835404028352916020019161323f565b820191906000526020600020905b81548152906001019060200180831161322257829003601f168201915b5050505050905060006001898960405161325a9291906147c0565b9081526020016040518091039020805461327390614be5565b80601f016020809104026020016040519081016040528092919081815260200182805461329f90614be5565b80156132ec5780601f106132c1576101008083540402835291602001916132ec565b820191906000526020600020905b8154815290600101906020018083116132cf57829003601f168201915b5050505050905060008260405161330391906147d0565b9081526040519081900360200190206003015460ff161580613348575060008160405161333091906147d0565b9081526040519081900360200190206003015460ff16155b15613365576040516229eaad60e31b815260040160405180910390fd5b6000878152600460205260409020600381015463ffffffff1661339b5760405163720caa4f60e01b815260040160405180910390fd5b80546301000000900460ff16156133c557604051636162391360e11b815260040160405180910390fd5b6000836040516133d591906147d0565b9081526040519081900360200190206001015460ff16600581111561340a57634e487b7160e01b600052602160045260246000fd5b815460ff16600581111561342e57634e487b7160e01b600052602160045260246000fd5b1415806134a7575060008260405161344691906147d0565b9081526040519081900360200190206001015460ff16600581111561347b57634e487b7160e01b600052602160045260246000fd5b8154610100900460ff1660058111156134a457634e487b7160e01b600052602160045260246000fd5b14155b156134c557604051635465083560e01b815260040160405180910390fd5b60ff87166134e6576040516396b346b560e01b815260040160405180910390fd5b805460ff6201000090910481161988161615613515576040516313bed4b560e31b815260040160405180910390fd5b426001600160401b0316866001600160401b0316116135465760405162d36c8560e81b815260040160405180910390fd5b60006135ce8d8d8080601f016020809104026020016040519081016040528093929190818152602001838380828437600081840152601f19601f820116905080830192505050505050508c8c8080601f0160208091040260200160405190810160405280939291908181526020018383808284376000920191909152508e9250613831915050565b6000818152600760205260408120805492935091600160a81b900460ff16801561360157508154600160b01b900460ff16155b8015613623575081546001600160401b03600160401b90910481164290911611155b905080156136e257815460ff60a01b1916600160a01b60ff8c160217808355600160401b90046001600160401b03908116908a161115613680578154600160401b600160801b031916600160401b6001600160401b038b16021782555b815460405184917f4ab936021ac0cc97c70f08db756e7c187f3bb7722a564cdeb72835a4ed1e6ac9916136cf91600160401b81046001600160401b031691600160a01b90910460ff1690614b75565b60405180910390a2505050505050610705565b8a8260000160106101000a81548163ffffffff021916908363ffffffff160217905550898260000160146101000a81548160ff021916908360ff160217905550428260000160006101000a8154816001600160401b0302191690836001600160401b03160217905550888260000160086101000a8154816001600160401b0302191690836001600160401b0316021790555060018260000160156101000a81548160ff02191690831515021790555060008260000160166101000a81548160ff021916908315150217905550878260000160176101000a81548160ff021916908315150217905550868260000160186101000a81548160ff021916908360ff1602179055506000801b8260010181905550827f1bd07344c4205a4aeac822bd931e45bbe1ab1bbdf65ca7a44a207672e8c104b560405160405180910390a2505050505050505050505050505050565b600083838360405160200161384893929190614a0b565b6040516020818303038152906040528051906020012090509392505050565b600080600061387585613d6c565b9050600081600581111561389957634e487b7160e01b600052602160045260246000fd5b14156138b857604051633a767e1d60e21b815260040160405180910390fd5b60006138c385613d6c565b905060008160058111156138e757634e487b7160e01b600052602160045260246000fd5b141561390657604051633a767e1d60e21b815260040160405180910390fd5b90925090505b9250929050565b8160008460405161392491906147d0565b90815260200160405180910390206000019080519060200190613948929190613ecb565b508060008460405161395a91906147d0565b908152602001604051809103902060010160006101000a81548160ff0219169083600581111561399a57634e487b7160e01b600052602160045260246000fd5b0217905550505050565b846000876040516139b591906147d0565b908152602001604051809103902060020190805190602001906139d9929190613ecb565b5060016000876040516139ec91906147d0565b908152604051908190036020018120600301805492151560ff19909316929092179091558490600090613a209089906147d0565b908152602001604051809103902060030160016101000a8154816001600160a01b0302191690836001600160a01b0316021790555082600087604051613a6691906147d0565b908152604051908190036020019020600301805460ff60a81b1916600160a81b836005811115613aa657634e487b7160e01b600052602160045260246000fd5b021790555081600087604051613abc91906147d0565b90815260200160405180910390206004019080519060200190613ae0929190613ecb565b506001600160a01b03841660009081526002602090815260409091208751613b0a92890190613ecb565b506001600160a01b03841660009081526003602090815260409091208251613b3492840190613ecb565b50836001600160a01b03167f4506e6c4aa323a2c7f01c52376e3badd33f3cdad4d027db71b363133e44bf3fe82604051613b6e91906148ef565b60405180910390a285604051613b8491906147d0565b60405180910390207f843c0a15fad6e77d44e651864701404af506907aba531b7777bcd396e45b25c6600088604051613bbd91906147d0565b90815260405190819003602001812090600090613bdb908b906147d0565b90815260405190819003602001812060010154613c06929160ff909116908a908a908a908a90614a41565b60405180910390a2505050505050565b600e546040516c4352454154455f504f4c49435960981b6020820152602d8101919091526001600160f81b031960f886811b8216604d84015285811b8216604e84015284901b16604f820152605081018290526000906070015b604051602081830303815290604052805190602001209050949350505050565b600084848484604051602001613c709493929190614786565b60095460ff16613cb65750565b600b54610100900460ff161580613cd05750600b5460ff16155b15613cee5760405163720caa4f60e01b815260040160405180910390fd5b600b546000828152600c602052604090205461010090910460ff161115613d285760405163720caa4f60e01b815260040160405180910390fd5b600e805460010190556000818152600c60205260408082208290555182917fd3045548f9924a0046dc929f664089cf290c017a30c32d65b321e75f32be084f91a250565b60008082604051602001613d8091906147d0565b604051602081830303815290604052805190602001209050604051602001613db3906410db1bdd5960da1b815260050190565b60405160208183030381529060405280519060200120811415613dd95750600192915050565b60405162466f6760e81b602082015260230160405160208183030381529060405280519060200120811415613e115750600292915050565b604051634564676560e01b602082015260240160405160208183030381529060405280519060200120811415613e4a5750600392915050565b6040516529b2b739b7b960d11b602082015260260160405160208183030381529060405280519060200120811415613e855750600492915050565b6040516720b1ba3ab0ba37b960c11b602082015260280160405160208183030381529060405280519060200120811415613ec25750600592915050565b50600092915050565b828054613ed790614be5565b90600052602060002090601f016020900481019282613ef95760008555613f3f565b82601f10613f1257805160ff1916838001178555613f3f565b82800160010185558215613f3f579182015b82811115613f3f578251825591602001919060010190613f24565b50613f4b929150613fc3565b5090565b828054613f5b90614be5565b90600052602060002090601f016020900481019282613f7d5760008555613f3f565b82601f10613f965782800160ff19823516178555613f3f565b82800160010185558215613f3f579182015b82811115613f3f578235825591602001919060010190613fa8565b5b80821115613f4b5760008155600101613fc4565b8035613fe381614c36565b919050565b80358015158114613fe357600080fd5b60008083601f840112614009578182fd5b5081356001600160401b0381111561401f578182fd5b60208301915083602082850101111561390c57600080fd5b803560068110613fe357600080fd5b600082601f830112614056578081fd5b81356001600160401b038082111561407057614070614c20565b604051601f8301601f19908116603f0116810190828211818310171561409857614098614c20565b816040528381528660208588010111156140b0578485fd5b8360208701602083013792830160200193909352509392505050565b80356001600160401b0381168114613fe357600080fd5b803560ff81168114613fe357600080fd5b600060208284031215614105578081fd5b813561411081614c36565b9392505050565b600060208284031215614128578081fd5b61411082613fe8565b600060208284031215614142578081fd5b5035919050565b6000806020838503121561415b578081fd5b82356001600160401b03811115614170578182fd5b61417c85828601613ff8565b90969095509350505050565b6000806000806080858703121561419d578182fd5b6141a685614037565b93506141b460208601614037565b92506141c2604086016140e3565b9396929550929360600135925050565b600080602083850312156141e4578182fd5b82356001600160401b03811115614170578283fd5b60008060006040848603121561420d578283fd5b83356001600160401b03811115614222578384fd5b61422e86828701613ff8565b909450925050602084013561424281614c36565b809150509250925092565b600080600080600080600080600060c08a8c03121561426a578485fd5b89356001600160401b0380821115614280578687fd5b61428c8d838e01613ff8565b909b50995060208c01359150808211156142a4578687fd5b6142b08d838e01613ff8565b909950975060408c01359150808211156142c8578687fd5b506142d58c828d01613ff8565b90965094505060608a013592506142ee60808b016140e3565b91506142fc60a08b016140cc565b90509295985092959850929598565b600080600080600060608688031215614322578081fd5b85356001600160401b0380821115614338578283fd5b61434489838a01613ff8565b9097509550602088013591508082111561435c578283fd5b5061436988828901613ff8565b96999598509660400135949350505050565b60008060008060008060808789031215614393578182fd5b86356001600160401b03808211156143a9578384fd5b6143b58a838b01613ff8565b909850965060208901359150808211156143cd578384fd5b506143da89828a01613ff8565b909550935050604087013591506143f3606088016140e3565b90509295509295509295565b600080600080600080600060a0888a031215614419578081fd5b87356001600160401b038082111561442f578283fd5b61443b8b838c01613ff8565b909950975060208a0135915080821115614453578283fd5b506144608a828b01613ff8565b90965094505060408801359250614479606089016140e3565b9150614487608089016140cc565b905092959891949750929550565b600080600080600080600080600060e08a8c0312156144b2578283fd5b89356001600160401b03808211156144c8578485fd5b6144d48d838e01613ff8565b909b50995060208c01359150808211156144ec578485fd5b506144f98c828d01613ff8565b90985096505060408a0135945061451260608b016140e3565b935061452060808b016140cc565b925061452e60a08b01613fe8565b91506142fc60c08b016140e3565b60006020828403121561454d578081fd5b81356001600160401b03811115614562578182fd5b61456e84828501614046565b949350505050565b600080600080600080600080610100898b031215614592578182fd5b88356001600160401b03808211156145a8578384fd5b6145b48c838d01614046565b995060208b01359150808211156145c9578384fd5b6145d58c838d01614046565b985060408b01359150808211156145ea578384fd5b6145f68c838d01614046565b975060608b013591508082111561460b578384fd5b6146178c838d01614046565b965061462560808c01613fd8565b955060a08b013591508082111561463a578384fd5b6146468c838d01614046565b945060c08b013591508082111561465b578384fd5b6146678c838d01614046565b935060e08b013591508082111561467c578283fd5b506146898b828c01614046565b9150509295985092959890939650565b6000806000606084860312156146ad578081fd5b833592506146bd602085016140e3565b9150604084013590509250925092565b6000602082840312156146de578081fd5b614110826140e3565b600080600080608085870312156146fc578182fd5b614705856140e3565b93506141b4602086016140e3565b6006811061473157634e487b7160e01b600052602160045260246000fd5b9052565b6006811061475357634e487b7160e01b600052602160045260246000fd5b60f81b9052565b60008151808452614772816020860160208601614bb5565b601f01601f19169290920160200192915050565b6147908186614735565b61479d6001820185614735565b60f89290921b6001600160f81b0319166002830152600382015260230192915050565b8183823760009101908152919050565b600082516147e2818460208701614bb5565b9190910192915050565b60008083546147fa81614be5565b6001828116801561481257600181146148235761484f565b60ff1984168752828701945061484f565b8786526020808720875b858110156148465781548a82015290840190820161482d565b50505082870194505b50929695505050505050565b60e08101614869828a614713565b6148766020830189614713565b60ff9690961660408201529315156060850152608084019290925260a083015263ffffffff1660c09091015292915050565b60c081016148b68289614713565b6148c36020830188614713565b60ff8616604083015284606083015263ffffffff841660808301528260a0830152979650505050505050565b602081526000614110602083018461475a565b60e08152600061491560e083018a61475a565b614922602084018a614713565b8281036040840152614934818961475a565b87151560608501526001600160a01b0387166080850152905061495a60a0840186614713565b82810360c084015261496c818561475a565b9a9950505050505050505050565b600061010080835261498e8184018c61475a565b905082810360208401526149a2818b61475a565b90506149b1604084018a614713565b82810360608401526149c3818961475a565b87151560808501526001600160a01b03871660a085015283810360c085015290506149ee818661475a565b9150506149fe60e0830184614713565b9998505050505050505050565b606081526000614a1e606083018661475a565b8281036020840152614a30818661475a565b915050826040830152949350505050565b60c081526000808854614a5381614be5565b8060c086015260e0600180841660008114614a755760018114614a8a57614ab8565b60ff1985168884015261010088019550614ab8565b8d87526020808820885b86811015614aaf5781548b8201870152908401908201614a94565b8a018501975050505b5050505050614aca6020840189614713565b8281036040840152614adc818861475a565b6001600160a01b03871660608501529050614afa6080840186614713565b82810360a08401526149fe818561475a565b600060e082019050614b1f828451614713565b6020830151614b316020840182614713565b5060ff60408401511660408301526060830151151560608301526080830151608083015260a083015160a083015263ffffffff60c08401511660c083015292915050565b6001600160401b0392909216825260ff16602082015260400190565b60008219821115614bb057634e487b7160e01b81526011600452602481fd5b500190565b60005b83811015614bd0578181015183820152602001614bb8565b83811115614bdf576000848401525b50505050565b600181811c90821680614bf957607f821691505b60208210811415614c1a57634e487b7160e01b600052602260045260246000fd5b50919050565b634e487b7160e01b600052604160045260246000fd5b6001600160a01b0381168114614c4b57600080fd5b5056feeee7642b09add85683f11d59dd3f2604c81e2ad034bfcffed7f74084c00a215ba2646970667358221220fef5f80d3092fa084d2717cbd284623b7a19bcef1c84ef7e001ca5d95655545964736f6c63430008040033",
  "immutableReferences": {},
  "source": "// SPDX-License-Identifier: MIT\npragma solidity ^0.8.4;\n\ncontract NodeRegistry {\n    // -------- Ops bitmask --------\n    uint8 private constant OP_READ   = 1 << 0; // 1\n    uint8 private constant OP_WRITE  = 1 << 1; // 2\n    uint8 private constant OP_UPDATE = 1 << 2; // 4\n    uint8 private constant OP_REMOVE = 1 << 3; // 8\n\n    // -------- Custom errors --------\n    error NotPolicyAdmin();\n    error NotResourceOwner();\n    error InvalidRoles();\n    error EmptyOpsAllowed();\n    error PolicyNotFound();\n    error PolicyDeprecated();\n    error PolicyRoleMismatch();\n    error EmptyOpsSubset();\n    error InvalidExpiry();\n    error GrantAlreadyActive();\n    error NodeNotRegistered();\n    error DuplicateSignature();\n    error AddressNotRegistered();\n    error ZeroAddr();\n    error DuplicatePolicy();\n    error DuplicateNodeId();\n    error OpsSubsetExceedsAllowed();\n    error NotGrantHolder();\n    error AlreadyRevoked();\n\n    // -------- Types --------\n    enum NodeType { Unknown, Cloud, Fog, Edge, Sensor, Actuator }\n\n    struct IoTNode {\n        string   nodeName;\n        NodeType nodeType;\n        string   publicKey;\n        bool     isRegistered;\n        address  registeredBy;\n        NodeType registeredByNodeType;\n        string   nodeSignature;\n    }\n\n    struct Policy {\n        NodeType fromRole;\n        NodeType toRole;\n        uint8    opsAllowed;\n        bool     isDeprecated;\n        bytes32  ctxSchema;\n        bytes32  policyHash;\n        uint32   version;\n    }\n\n    struct CapabilityGrant {\n        uint64 issuedAt;\n        uint64 expiresAt;\n        uint32 policyId;\n        uint8  opsSubset;\n        bool   isIssued;\n        bool   isRevoked;\n        bool   delegationAllowed;\n        uint8  delegationDepth;\n        bytes32 parentGrantId; // NEW: linkage for delegated grants\n    }\n\n    // -------- Storage --------\n    mapping(string => IoTNode) public iotNodes;            // nodeId => details\n    mapping(string => string)  public nodeSignatureToNodeId;\n    mapping(address => string) public addressToNodeId;\n    mapping(address => string) public nodeRpcUrls;\n\n    mapping(uint256 => Policy) public policies;\n    uint256 public nextPolicyId;\n    address public policyAdmin;\n\n    // Keyed by keccak256(abi.encode(fromSig, toSig, policyId))\n    mapping(bytes32 => CapabilityGrant) public grants;\n\n    // policyHash -> policyId (for duplicate detection)\n    mapping(bytes32 => uint256) public policyIdByHash;\n\n    // -------- Events --------\n    event ValidatorProposed(address indexed proposedBy, address indexed validator);\n    event RpcUrlMapped(address indexed nodeAddress, string rpcURL);\n\n    event NodeRegistered(\n        string indexed nodeId,\n        string nodeName,\n        NodeType nodeType,\n        string publicKey,\n        address registeredBy,\n        NodeType registeredByNodeType,\n        string nodeSignature\n    );\n\n    event NodeOwnershipTransferred(string indexed nodeId, address indexed previousOwner, address indexed newOwner);\n\n    event PolicyCreated(\n        uint256 indexed policyId,\n        NodeType fromRole,\n        NodeType toRole,\n        uint8 opsAllowed,\n        bytes32 ctxSchema,\n        uint32 version,\n        bytes32 policyHash\n    );\n    event PolicyUpdated(\n        uint256 indexed policyId,\n        uint32 version,\n        uint8 opsAllowed,\n        bytes32 ctxSchema,\n        bytes32 policyHash\n    );\n    event PolicyDeprecatedEvent(uint256 indexed policyId);\n    event PolicyChanged(uint256 indexed policyId, uint32 version);\n\n    event GrantIssued(bytes32 indexed grantId);\n    event GrantExtended(bytes32 indexed grantId, uint64 newExpiresAt, uint8 newOpsSubset);\n    event GrantRevoked(bytes32 indexed grantId);\n    event GrantDelegated(bytes32 indexed parentGrantId, bytes32 indexed grantId, uint8 depthRemaining);\n\n    // ============== MULTISIG CONFIG (STATE + EVENTS) ==============\n    bool public msigRequired;                     // on/off switch\n    mapping(address => bool) public msigApprover; // who can approve\n    uint8  public msigApproverCount;\n    uint8  public msigThreshold;                  // 1..approverCount\n\n    // action approvals (only used for createPolicy in this version)\n    mapping(bytes32 => uint256) private msigApprovalsCount;\n    mapping(bytes32 => mapping(address => bool)) private msigApprovedBy;\n\n    // nonce: changes the action key so previous approvals don't apply\n    uint256 private msigNonceCreatePolicy;\n\n    event MsigModeSet(bool required);\n    event MsigApproverAdded(address indexed approver);\n    event MsigApproverRemoved(address indexed approver);\n    event MsigThresholdSet(uint8 threshold);\n    event MsigApproved(bytes32 indexed actionKey, address indexed approver, uint256 approvals);\n    event MsigCleared(bytes32 indexed actionKey);\n\n    constructor() {\n        policyAdmin = msg.sender;\n    }\n\n    // =========================================================\n    //                       NODE REGISTRATION\n    // =========================================================\n    function registerNodePacked(bytes calldata payload) external {\n        (\n            string memory nodeId,\n            string memory nodeName,\n            string memory nodeTypeStr,\n            string memory publicKey,\n            address registeredBy,\n            string memory rpcURL,\n            string memory registeredByNodeTypeStr,\n            string memory nodeSignature\n        ) = abi.decode(\n            payload,\n            (string,string,string,string,address,string,string,string)\n        );\n\n        if (registeredBy == address(0)) revert ZeroAddr();\n        // if (msg.sender != registeredBy) revert NotResourceOwner(); // Harden: only the registering owner can submit\n        if (bytes(iotNodes[nodeId].nodeName).length != 0 && iotNodes[nodeId].isRegistered) revert DuplicateNodeId();\n        if (bytes(nodeSignatureToNodeId[nodeSignature]).length != 0) revert DuplicateSignature();\n\n        nodeSignatureToNodeId[nodeSignature] = nodeId;\n\n        (NodeType nodeType, NodeType regByNodeType) = _parseRoles(nodeTypeStr, registeredByNodeTypeStr);\n\n        _setNodeHeader(nodeId, nodeName, nodeType);\n        _setNodeTail(nodeId, publicKey, registeredBy, regByNodeType, nodeSignature, rpcURL);\n    }\n\n    function transferNodeOwnership(string calldata nodeId, address newOwner) external {\n        if (newOwner == address(0)) revert ZeroAddr();\n        if (!iotNodes[nodeId].isRegistered) revert NodeNotRegistered();\n        address prev = iotNodes[nodeId].registeredBy;\n        // if (msg.sender != prev) revert NotResourceOwner();\n\n        // update owner\n        iotNodes[nodeId].registeredBy = newOwner;\n\n        // clear old reverse index and set new one\n        addressToNodeId[prev] = \"\";\n        addressToNodeId[newOwner] = nodeId;\n\n        // carry over rpcURL mapping (if any) to new owner address\n        string memory url = nodeRpcUrls[prev];\n        if (bytes(url).length != 0) {\n            nodeRpcUrls[newOwner] = url;\n            emit RpcUrlMapped(newOwner, url);\n        }\n\n        emit NodeOwnershipTransferred(nodeId, prev, newOwner);\n    }\n\n    function isNodeRegistered(string calldata nodeSignature) external view returns (bool) {\n        string memory nodeId = nodeSignatureToNodeId[nodeSignature];\n        if (bytes(nodeId).length == 0) return false;\n        if (!iotNodes[nodeId].isRegistered) return false;\n        return keccak256(abi.encodePacked(iotNodes[nodeId].nodeSignature))\n            == keccak256(abi.encodePacked(nodeSignature));\n    }\n\n    function proposeValidator(address validator) external {\n        if (validator == address(0)) revert ZeroAddr();\n        emit ValidatorProposed(msg.sender, validator);\n    }\n\n    function _parseRoles(\n        string memory nodeTypeStr,\n        string memory registeredByNodeTypeStr\n    ) private pure returns (NodeType nodeType, NodeType regByNodeType) {\n        NodeType t1 = getNodeType(nodeTypeStr);\n        if (t1 == NodeType.Unknown) revert InvalidRoles();\n        NodeType t2 = getNodeType(registeredByNodeTypeStr);\n        if (t2 == NodeType.Unknown) revert InvalidRoles();\n        return (t1, t2);\n    }\n\n    function _setNodeHeader(\n        string memory nodeId,\n        string memory nodeName,\n        NodeType nodeType\n    ) private {\n        iotNodes[nodeId].nodeName = nodeName;\n        iotNodes[nodeId].nodeType = nodeType;\n    }\n\n    function _setNodeTail(\n        string memory nodeId,\n        string memory publicKey,\n        address registeredBy,\n        NodeType registeredByNodeType,\n        string memory nodeSignature,\n        string memory rpcURL\n    ) private {\n        iotNodes[nodeId].publicKey = publicKey;\n        iotNodes[nodeId].isRegistered = true;\n        iotNodes[nodeId].registeredBy = registeredBy;\n        iotNodes[nodeId].registeredByNodeType = registeredByNodeType;\n        iotNodes[nodeId].nodeSignature = nodeSignature;\n\n        addressToNodeId[registeredBy] = nodeId;\n        nodeRpcUrls[registeredBy] = rpcURL;\n\n        emit RpcUrlMapped(registeredBy, rpcURL);\n        emit NodeRegistered(\n            nodeId,\n            iotNodes[nodeId].nodeName,\n            iotNodes[nodeId].nodeType,\n            publicKey,\n            registeredBy,\n            registeredByNodeType,\n            nodeSignature\n        );\n    }\n\n    function getNodeDetailsBySignature(string calldata nodeSignature)\n        external\n        view\n        returns (\n            string memory,\n            string memory,\n            NodeType,\n            string memory,\n            bool,\n            address,\n            string memory,\n            NodeType\n        )\n    {\n        string memory nodeId = nodeSignatureToNodeId[nodeSignature];\n\n        if (\n            !iotNodes[nodeId].isRegistered ||\n            keccak256(abi.encodePacked(iotNodes[nodeId].nodeSignature)) !=\n                keccak256(abi.encodePacked(nodeSignature))\n        ) revert NodeNotRegistered();\n\n        return (\n            nodeId,\n            iotNodes[nodeId].nodeName,\n            iotNodes[nodeId].nodeType,\n            iotNodes[nodeId].publicKey,\n            iotNodes[nodeId].isRegistered,\n            iotNodes[nodeId].registeredBy,\n            iotNodes[nodeId].nodeSignature,\n            iotNodes[nodeId].registeredByNodeType\n        );\n    }\n\n    function getNodeDetailsByAddress(address nodeAddress)\n        external\n        view\n        returns (\n            string memory,\n            string memory,\n            NodeType,\n            string memory,\n            bool,\n            address,\n            string memory,\n            NodeType\n        )\n    {\n        string memory nodeId = addressToNodeId[nodeAddress];\n        if (bytes(nodeId).length == 0) revert AddressNotRegistered();\n\n        return (\n            nodeId,\n            iotNodes[nodeId].nodeName,\n            iotNodes[nodeId].nodeType,\n            iotNodes[nodeId].publicKey,\n            iotNodes[nodeId].isRegistered,\n            iotNodes[nodeId].registeredBy,\n            iotNodes[nodeId].nodeSignature,\n            iotNodes[nodeId].registeredByNodeType\n        );\n    }\n\n    // =========================================================\n    //                         POLICY REGISTRY\n    // =========================================================\n    modifier onlyPolicyAdmin() {\n        if (msg.sender != policyAdmin) revert NotPolicyAdmin();\n        _;\n    }\n\n    function setPolicyAdmin(address newAdmin) external onlyPolicyAdmin {\n        if (newAdmin == address(0)) revert ZeroAddr();\n        policyAdmin = newAdmin;\n    }\n\n    // ---------- Multisig config (admin) ----------\n    function setMsigMode(bool required) external onlyPolicyAdmin {\n        msigRequired = required;\n        emit MsigModeSet(required);\n    }\n\n    function addMsigApprover(address a) external onlyPolicyAdmin {\n        if (a == address(0) || msigApprover[a]) revert NotPolicyAdmin(); // reuse admin guard; bad arg treated as admin error\n        msigApprover[a] = true;\n        unchecked { msigApproverCount += 1; }\n        if (msigThreshold == 0) msigThreshold = 1;\n        emit MsigApproverAdded(a);\n    }\n\n    function removeMsigApprover(address a) external onlyPolicyAdmin {\n        if (!msigApprover[a]) revert NotPolicyAdmin();\n        msigApprover[a] = false;\n        unchecked { msigApproverCount -= 1; }\n        if (msigApproverCount > 0 && msigThreshold > msigApproverCount) {\n            msigThreshold = msigApproverCount;\n            emit MsigThresholdSet(msigThreshold);\n        }\n        emit MsigApproverRemoved(a);\n    }\n\n    function setMsigThreshold(uint8 k) external onlyPolicyAdmin {\n        if (k == 0 || k > msigApproverCount) revert InvalidRoles(); // minimal guard\n        msigThreshold = k;\n        emit MsigThresholdSet(k);\n    }\n\n    // ---------- Multisig: approval + gate for createPolicy ----------\n    function _keyCreatePolicy(uint8 fromRole, uint8 toRole, uint8 ops, bytes32 schema)\n        internal view returns (bytes32)\n    {\n        // include a domain tag + current nonce so approvals are oneshot\n        return keccak256(\n            abi.encodePacked(\n                \"CREATE_POLICY\",\n                msigNonceCreatePolicy,\n                fromRole,\n                toRole,\n                ops,\n                schema\n            )\n        );\n    }\n\n    function approveCreatePolicy(uint8 fromRole, uint8 toRole, uint8 ops, bytes32 schema) external {\n        if (!msigApprover[msg.sender]) revert NotPolicyAdmin();\n        bytes32 k = _keyCreatePolicy(fromRole, toRole, ops, schema);\n        if (msigApprovedBy[k][msg.sender]) revert GrantAlreadyActive(); // already approved by this approver\n        msigApprovedBy[k][msg.sender] = true;\n        uint256 c = msigApprovalsCount[k] + 1;\n        msigApprovalsCount[k] = c;\n        emit MsigApproved(k, msg.sender, c);\n    }\n\n    function _requireAndClearApprovals(bytes32 k) internal {\n        if (!msigRequired) return;\n        if (msigThreshold == 0 || msigApproverCount == 0) revert PolicyNotFound(); // generic guard\n        if (msigApprovalsCount[k] < msigThreshold) revert PolicyNotFound();\n        // consume approvals by bumping the nonce; old approvals won't match new key\n        unchecked { msigNonceCreatePolicy += 1; }\n        // optional: clear counter for tidiness\n        msigApprovalsCount[k] = 0;\n        emit MsigCleared(k);\n    }\n\n    function _computePolicyHash(\n        NodeType fromRole,\n        NodeType toRole,\n        uint8 opsAllowed,\n        bytes32 ctxSchema\n    ) internal pure returns (bytes32) {\n        return keccak256(abi.encodePacked(fromRole, toRole, opsAllowed, ctxSchema));\n    }\n\n    function createPolicy(\n        NodeType fromRole,\n        NodeType toRole,\n        uint8 opsAllowed,\n        bytes32 ctxSchema\n    ) external onlyPolicyAdmin returns (uint256 policyId) {\n        _requireAndClearApprovals(_keyCreatePolicy(uint8(fromRole), uint8(toRole), opsAllowed, ctxSchema));\n\n        if (fromRole == NodeType.Unknown || toRole == NodeType.Unknown) revert InvalidRoles();\n        if (opsAllowed == 0) revert EmptyOpsAllowed();\n\n        // compute canonical hash and reject duplicates\n        bytes32 h = _computePolicyHash(fromRole, toRole, opsAllowed, ctxSchema);\n        uint256 existing = policyIdByHash[h];\n        if (existing != 0 && !policies[existing].isDeprecated) revert DuplicatePolicy();\n\n        unchecked { policyId = ++nextPolicyId; }\n\n        policies[policyId].fromRole     = fromRole;\n        policies[policyId].toRole       = toRole;\n        policies[policyId].opsAllowed   = opsAllowed;\n        policies[policyId].isDeprecated = false;\n        policies[policyId].ctxSchema    = ctxSchema;\n        policies[policyId].policyHash   = h;\n        policies[policyId].version      = 1;\n\n        // index it for fast duplicate checks\n        policyIdByHash[h] = policyId;\n\n        emit PolicyCreated(policyId, fromRole, toRole, opsAllowed, ctxSchema, 1, h);\n        emit PolicyChanged(policyId, 1);\n    }\n\n    function updatePolicy(uint256 policyId, uint8 opsAllowed, bytes32 ctxSchema) external onlyPolicyAdmin {\n        if (policies[policyId].version == 0) revert PolicyNotFound();\n        if (policies[policyId].isDeprecated) revert PolicyDeprecated();\n        if (opsAllowed == 0) revert EmptyOpsAllowed();\n\n        // compute new hash and check it doesn't collide with another live policy\n        bytes32 newH = _computePolicyHash(policies[policyId].fromRole, policies[policyId].toRole, opsAllowed, ctxSchema);\n        uint256 existing = policyIdByHash[newH];\n        if (existing != 0 && existing != policyId && !policies[existing].isDeprecated) revert DuplicatePolicy();\n\n        // clear old index and set new\n        policyIdByHash[policies[policyId].policyHash] = 0;\n\n        policies[policyId].opsAllowed = opsAllowed;\n        policies[policyId].ctxSchema  = ctxSchema;\n        unchecked { policies[policyId].version += 1; }\n        policies[policyId].policyHash = newH;\n\n        policyIdByHash[newH] = policyId;\n\n        emit PolicyUpdated(policyId, policies[policyId].version, policies[policyId].opsAllowed, policies[policyId].ctxSchema, newH);\n        emit PolicyChanged(policyId, policies[policyId].version);\n    }\n\n    function deprecatePolicy(uint256 policyId) external onlyPolicyAdmin {\n        if (policies[policyId].version == 0) revert PolicyNotFound();\n        if (policies[policyId].isDeprecated) revert PolicyDeprecated();\n        policies[policyId].isDeprecated = true;\n\n        // free the hash so an identical policy can be recreated later if needed\n        policyIdByHash[policies[policyId].policyHash] = 0;\n\n        emit PolicyDeprecatedEvent(policyId);\n        emit PolicyChanged(policyId, policies[policyId].version);\n    }\n\n    function getPolicy(uint256 policyId) external view returns (Policy memory) {\n        return policies[policyId];\n    }\n\n    // =========================================================\n    //                 GRANTS (RESOURCE-OWNER ONLY)\n    // =========================================================\n    function _grantKey(\n        string memory fromNodeSignature,\n        string memory toNodeSignature,\n        uint256 policyId\n    ) internal pure returns (bytes32) {\n        // abi.encode with tuple to avoid collisions; includes policyId\n        return keccak256(abi.encode(fromNodeSignature, toNodeSignature, policyId));\n    }\n\n    function issueGrant(\n        string calldata fromNodeSignature,\n        string calldata toNodeSignature,\n        uint256 policyId,\n        uint8 opsSubset,\n        uint64 expiresAt\n    ) external {\n        _issueGrantCore(fromNodeSignature, toNodeSignature, policyId, opsSubset, expiresAt, false, 0);\n    }\n\n    function issueGrantDelegable(\n        string calldata fromNodeSignature,\n        string calldata toNodeSignature,\n        uint256 policyId,\n        uint8 opsSubset,\n        uint64 expiresAt,\n        bool delegationAllowed,\n        uint8 delegationDepth\n    ) external {\n        _issueGrantCore(fromNodeSignature, toNodeSignature, policyId, opsSubset, expiresAt, delegationAllowed, delegationDepth);\n    }\n\n    function _issueGrantCore(\n        string calldata fromNodeSignature,\n        string calldata toNodeSignature,\n        uint256 policyId,\n        uint8 opsSubset,\n        uint64 expiresAt,\n        bool delegationAllowed,\n        uint8 delegationDepth\n    ) internal {\n        string memory fromNodeId = nodeSignatureToNodeId[fromNodeSignature];\n        string memory toNodeId   = nodeSignatureToNodeId[toNodeSignature];\n\n        if (!iotNodes[fromNodeId].isRegistered || !iotNodes[toNodeId].isRegistered) revert NodeNotRegistered();\n        // if (msg.sender != iotNodes[toNodeId].registeredBy) revert NotResourceOwner();\n\n        Policy storage p = policies[policyId];\n        if (p.version == 0) revert PolicyNotFound();\n        if (p.isDeprecated) revert PolicyDeprecated();\n        if (p.fromRole != iotNodes[fromNodeId].nodeType || p.toRole != iotNodes[toNodeId].nodeType) revert PolicyRoleMismatch();\n\n        if (opsSubset == 0) revert EmptyOpsSubset();\n        if ((opsSubset & ~p.opsAllowed) != 0) revert OpsSubsetExceedsAllowed();\n        if (expiresAt <= uint64(block.timestamp)) revert InvalidExpiry();\n\n        bytes32 grantId = _grantKey(fromNodeSignature, toNodeSignature, policyId);\n        CapabilityGrant storage g = grants[grantId];\n\n        // If there is an active grant for this exact tuple, allow a safe EXTEND/ADJUST instead of rejecting\n        bool active = (g.isIssued && !g.isRevoked && uint64(block.timestamp) <= g.expiresAt);\n        if (active) {\n            // adjust: opsSubset must still be within policy; replacing allowed (do NOT enlarge beyond policy)\n            g.opsSubset = opsSubset;\n            // extend: only allow moving forward\n            if (expiresAt > g.expiresAt) {\n                g.expiresAt = expiresAt;\n            }\n            // keep existing delegation flags as is\n            emit GrantExtended(grantId, g.expiresAt, g.opsSubset);\n            return;\n        }\n\n        // fresh issue\n        g.policyId          = uint32(policyId);\n        g.opsSubset         = opsSubset;\n        g.issuedAt          = uint64(block.timestamp);\n        g.expiresAt         = expiresAt;\n        g.isIssued          = true;\n        g.isRevoked         = false;\n        g.delegationAllowed = delegationAllowed;\n        g.delegationDepth   = delegationDepth;\n        g.parentGrantId     = bytes32(0);\n\n        emit GrantIssued(grantId);\n    }\n\n    function delegateGrant(\n        string calldata currentFromNodeSignature,  // holder of the parent grant\n        string calldata toNodeSignature,\n        string calldata newFromNodeSignature,      // child \"from\"\n        uint256 policyId,\n        uint8 opsSubset,\n        uint64 expiresAt\n    ) external {\n        // Load parent grant by canonical key (currentFrom -> to, policyId)\n        bytes32 parentId = _grantKey(currentFromNodeSignature, toNodeSignature, policyId);\n        CapabilityGrant storage parent = grants[parentId];\n        if (!parent.isIssued || parent.isRevoked) revert NotGrantHolder();\n        if (uint64(block.timestamp) > parent.expiresAt) revert InvalidExpiry();\n        if (!parent.delegationAllowed || parent.delegationDepth == 0) revert NotGrantHolder();\n\n        // Holder-ownership check: caller must control the currentFrom node\n        // string memory holderNodeId = nodeSignatureToNodeId[currentFromNodeSignature];\n        // if (msg.sender != iotNodes[holderNodeId].registeredBy) revert NotGrantHolder();\n\n        // Policy must be live, and the child must not exceed policy or parent\n        Policy storage p = policies[parent.policyId];\n        if (p.version == 0) revert PolicyNotFound();\n        if (p.isDeprecated) revert PolicyDeprecated();\n        if (opsSubset == 0) revert EmptyOpsSubset();\n        if ((opsSubset & ~p.opsAllowed) != 0) revert OpsSubsetExceedsAllowed();\n        if ((opsSubset & ~parent.opsSubset) != 0) revert OpsSubsetExceedsAllowed();\n        if (expiresAt <= uint64(block.timestamp) || expiresAt > parent.expiresAt) revert InvalidExpiry();\n\n        // Create/extend child grant (newFrom -> to, same policyId)\n        bytes32 childId = _grantKey(newFromNodeSignature, toNodeSignature, policyId);\n        CapabilityGrant storage c = grants[childId];\n\n        // If active, allow safe adjust/extend under the same constraints\n        if (c.isIssued && !c.isRevoked && uint64(block.timestamp) <= c.expiresAt) {\n            c.opsSubset = opsSubset;\n            if (expiresAt > c.expiresAt) {\n                c.expiresAt = expiresAt;\n            }\n            // keep link/flags if already set\n            emit GrantExtended(childId, c.expiresAt, c.opsSubset);\n            return;\n        }\n\n        // Fresh child grant; propagate delegation flags and depth (minus one)\n        c.policyId          = uint32(parent.policyId);\n        c.opsSubset         = opsSubset;\n        c.issuedAt          = uint64(block.timestamp);\n        c.expiresAt         = expiresAt;\n        c.isIssued          = true;\n        c.isRevoked         = false;\n        c.delegationAllowed = parent.delegationAllowed;\n        unchecked { c.delegationDepth = parent.delegationDepth - 1; }\n        c.parentGrantId     = parentId;\n\n        emit GrantDelegated(parentId, childId, c.delegationDepth);\n    }\n    function revokeGrant(string calldata fromNodeSignature, string calldata toNodeSignature, uint256 policyId) external {\n        bytes32 grantId = _grantKey(fromNodeSignature, toNodeSignature, policyId);\n        // string memory toNodeId = nodeSignatureToNodeId[toNodeSignature];\n        // if (msg.sender != iotNodes[toNodeId].registeredBy) revert NotResourceOwner();\n        if (!grants[grantId].isIssued) revert PolicyNotFound();\n        if (grants[grantId].isRevoked) revert AlreadyRevoked();\n\n        grants[grantId].isRevoked = true;\n        emit GrantRevoked(grantId);\n    }\n\n    function getGrant(\n        string calldata fromNodeSignature,\n        string calldata toNodeSignature,\n        uint256 policyId\n    )\n        external\n        view\n        returns (uint256 policyIdOut, uint8 opsSubset, uint64 issuedAt, uint64 expiresAt, bool isIssued, bool isRevoked)\n    {\n        bytes32 id = _grantKey(fromNodeSignature, toNodeSignature, policyId);\n        CapabilityGrant storage g = grants[id];\n        return (g.policyId, g.opsSubset, g.issuedAt, g.expiresAt, g.isIssued, g.isRevoked);\n    }\n\n    function getGrantEx(\n        string calldata fromNodeSignature,\n        string calldata toNodeSignature,\n        uint256 policyId\n    )\n        external\n        view\n        returns (\n            uint256 policyIdOut,\n            uint8 opsSubset,\n            uint64 issuedAt,\n            uint64 expiresAt,\n            bool isIssued,\n            bool isRevoked,\n            bool delegationAllowed,\n            uint8 delegationDepth\n        )\n    {\n        bytes32 id = _grantKey(fromNodeSignature, toNodeSignature, policyId);\n        CapabilityGrant storage g = grants[id];\n        return (g.policyId, g.opsSubset, g.issuedAt, g.expiresAt, g.isIssued, g.isRevoked, g.delegationAllowed, g.delegationDepth);\n    }\n\n    function checkGrant(\n        string calldata fromNodeSignature,\n        string calldata toNodeSignature,\n        uint256 policyId,\n        uint8 opBit\n    ) external view returns (bool) {\n        bytes32 grantId = _grantKey(fromNodeSignature, toNodeSignature, policyId);\n        CapabilityGrant storage g = grants[grantId];\n        if (!g.isIssued || g.isRevoked) return false;\n        if (uint64(block.timestamp) > g.expiresAt) return false;\n\n        // parent must be valid if present\n        if (g.parentGrantId != bytes32(0)) {\n            CapabilityGrant storage parent = grants[g.parentGrantId];\n            if (!parent.isIssued || parent.isRevoked) return false;\n            if (uint64(block.timestamp) > parent.expiresAt) return false;\n        }\n\n        Policy storage p = policies[g.policyId];\n        if (p.version == 0 || p.isDeprecated) return false;\n\n        if ((g.opsSubset & opBit) == 0) return false;\n        if ((p.opsAllowed & opBit) == 0) return false;\n\n        return true;\n    }\n\n    function isGrantExpired(\n        string calldata fromNodeSignature,\n        string calldata toNodeSignature,\n        uint256 policyId\n    )\n        external\n        view\n        returns (bool)\n    {\n        bytes32 grantId = _grantKey(fromNodeSignature, toNodeSignature, policyId);\n        if (!grants[grantId].isIssued || grants[grantId].isRevoked) return true;\n        return (uint64(block.timestamp) > grants[grantId].expiresAt);\n    }\n\n    // =========================================================\n    //                         HELPERS\n    // =========================================================\n    function getNodeType(string memory nodeTypeStr) internal pure returns (NodeType) {\n        bytes32 h = keccak256(abi.encodePacked(nodeTypeStr));\n        if (h == keccak256(abi.encodePacked(\"Cloud\")))    return NodeType.Cloud;\n        if (h == keccak256(abi.encodePacked(\"Fog\")))      return NodeType.Fog;\n        if (h == keccak256(abi.encodePacked(\"Edge\")))     return NodeType.Edge;\n        if (h == keccak256(abi.encodePacked(\"Sensor\")))   return NodeType.Sensor;\n        if (h == keccak256(abi.encodePacked(\"Actuator\"))) return NodeType.Actuator;\n        return NodeType.Unknown;\n    }\n\n    function isValidator(string calldata nodeSignature) external view returns (bool) {\n        string memory nodeId = nodeSignatureToNodeId[nodeSignature];\n\n        if (\n            !iotNodes[nodeId].isRegistered ||\n            keccak256(abi.encodePacked(iotNodes[nodeId].nodeSignature)) !=\n                keccak256(abi.encodePacked(nodeSignature))\n        ) revert NodeNotRegistered();\n\n        NodeType t = iotNodes[nodeId].nodeType;\n        return (t == NodeType.Cloud || t == NodeType.Fog);\n    }\n}",
  "sourcePath": "/Users/khannmohsin/VSCode_Projects/MyDisIoT_Project/Node_root/smart_contract_deployment/contracts/NodeRegistry.sol",
  "compiler": {
    "name": "solc",
    "version": "0.8.4+commit.c7e474f2.Emscripten.clang"
  },
  "schemaVersion": "3.4.16",
  "updatedAt": "2025-08-21T00:08:48.498Z",
  "networkType": "ethereum",
  "devdoc": {
    "kind": "dev",
    "methods": {},
    "version": 1
  },
  "userdoc": {
    "kind": "user",
    "methods": {},
    "version": 1
  }
}